:020000040800F2
:1000000000000824A5160008D5120008DD1200081B
:10001000E5120008ED120008F512000800000000CB
:10002000000000000000000000000000FD120008B9
:100030000B13000800000000191300082713000824
:10004000F9160008F9160008F9160008F916000854
:10005000F9160008F9160008F9160008F916000844
:10006000F9160008F9160008F916000835130008FB
:10007000F9160008F9160008F9160008F916000824
:10008000F9160008F9160008F9160008F916000814
:10009000F9160008F9160008F9160008F916000804
:1000A000F9160008F9160008F9160008F9160008F4
:1000B000F9160008F9160008F9160008F9160008E4
:1000C000F9160008F9160008F9160008F9160008D4
:1000D000F9160008F9160008F9160008F9160008C4
:1000E000F9160008F916000800000000F9160008CB
:1000F000F9160008F9160008F9160008F9160008A4
:10010000F9160008F9160008F9160008F916000893
:10011000F9160008F9160008F9160008F916000883
:10012000F9160008F9160008F9160008F916000873
:10013000F9160008F9160008F9160008F916000863
:1001400000000000000000000000000000000000AF
:10015000F9160008F9160008F9160008F916000843
:10016000F9160008F9160008F9160008F916000833
:10017000F9160008F9160008F9160008000000003A
:10018000F9160008F9160008F9160008F916000813
:10019000F9160008F9160008F916000849130008B6
:1001A000F9160008F9160008F9160008F9160008F3
:1001B000F9160008F9160008F9160008F9160008E3
:1001C000F9160008F9160008F9160008F9160008D3
:1001D000F9160008F9160008F9160008F9160008C3
:1001E000F9160008F9160008F9160008F9160008B3
:1001F000F9160008F9160008F9160008F9160008A3
:10020000F9160008F9160008F9160008F916000892
:10021000F9160008F9160008F9160008F916000882
:10022000F9160008F9160008F91600080000000089
:10023000F9160008F916000800000000F916000879
:10024000F9160008F9160008F9160008F916000852
:10025000F9160008F9160008F9160008F916000842
:10026000F9160008F9160008F9160008F916000832
:10027000F9160008F9160008F91600080000000039
:10028000F9160008F9160008F91600080000000029
:0802900000000000F91600084F
:1002A00010B5054C237833B9044B13B10448AFF3B0
:1002B00000800123237010BDE00000240000000036
:1002C0004823010808B5034B1BB103490348AFF3AA
:1002D000008008BD00000000E4000024482301085D
:1002E00001F0FF01102A2BDB10F0070F08D010F8E7
:1002F000013B013A8B422DD010F0070F42B3F6D1EB
:10030000F0B441EA012141EA014122F007047FF003
:1003100000070023F0E80256083C85EA010586EA5A
:10032000010685FA47F5A3FA87F586FA47F6A5FA96
:1003300087F68EB9EED1F0BC01F0FF0102F00702A2
:1003400032B110F8013B013A83EA010313B1F8D14D
:100350000020704701387047002D06BF354603382E
:10036000073815F0010F07D1013015F4807F02BF67
:10037000013015F4C03F0130F0BC0138704700BFB8
:1003800053B94AB9002908BF00281CBF4FF0FF31FC
:100390004FF0FF3000F088B9ADF1080C6DE904CEE4
:1003A00000F006F8DDF804E0DDE9022304B0704750
:1003B0002DE9F047089D8E4604468846002B4AD119
:1003C0008A42174662D9B2FA82F64EB1C6F12003CC
:1003D00001FA06F820FA03F3B74043EA0808B440EC
:1003E0004FEA174E1FFA87FCB8FBFEF1230C0EFBF9
:1003F000118843EA084301FB0CF29A4209D9FB1821
:1004000001F1FF3080F0EA809A4240F2E780023941
:100410003B449A1AA3B2B2FBFEF00EFB102243EA51
:10042000024300FB0CFC9C4509D9FB1800F1FF328C
:1004300080F0D6809C4540F2D3803B44023840EAAD
:100440000140A3EB0C0300211DB1F3400022C5E9DC
:100450000032BDE8F0878B4205D90DB1C5E9000136
:1004600000210846F5E7B3FA83F1002946D1734528
:1004700002D3824200F20581841A6EEB030201204E
:100480009046002DE5D0C5E90048E2E7002A00F0DB
:100490009080B2FA82F6002E40F0A4808A1A030CF3
:1004A0004FEA174E80B2BCB20121B2FBFEFC0EFB3C
:1004B0001C2243EA024304FB0CF29A4207D9FB18C0
:1004C0000CF1FF3802D29A4200F2E080C4469B1A37
:1004D000B3FBFEF20EFB123340EA034302FB04F4CB
:1004E0009C4207D9FB1802F1FF3002D29C4200F275
:1004F000CA8002461B1B42EA0C40A5E7C1F1200658
:100500008B4022FA06F71F430EFA01F420FA06F395
:100510002EFA06FE4FEA1749234300FA01F81FFAA4
:1005200087FCBEFBF9F01C0C09FB10EE44EA0E44FC
:1005300000FB0CFEA64502FA01F209D93C1900F1B4
:10054000FF3A80F09C80A64540F2998002383C44F6
:10055000A4EB0E041FFA83FEB4FBF9F309FB13446A
:100560004EEA044403FB0CFCA44508D93C1903F1F2
:10057000FF3E80F08280A4457FD9023B3C4443EAA1
:100580000040A4EB0C04A0FB02EC64457346E1467A
:1005900062D35FD05DB1B8EB030264EB090404FAE7
:1005A00006F622FA01F31E43CC40C5E9006400219F
:1005B0004FE7B1FBF2FC010C41EA0E4180B240EA88
:1005C00001423B4638463C46B846BE462026B1FB73
:1005D000F7F1A2EB080241EA0C4166E7014618E791
:1005E00010462CE7C6F120022EFA02F3B740B140C4
:1005F00020FA02F24FEA174E0A43B3FBFEF8BCB2F0
:100600000EFB1833110C41EA034108FB04F9B0401A
:1006100089454FEA104380B23ED9791808F1FF3C72
:1006200001D289451FD8A1EB0901B1FBFEF909FBF5
:1006300004F80EFB191192B242EA0142424529D256
:10064000BA1809F1FF31C4D24245C2D2A9F1020160
:100650003A44BEE7F0459DD2BEEB02036CEB070CBB
:100660000138E14696E7A7EB09094944A8F1020CD5
:10067000B1FBFEF909FB04F8DBE773467FE7504660
:1006800066E70846FDE63B44023A33E7ACF1020C6C
:100690003B441CE749469CE7A1EB0901C446B1FB7A
:1006A000FEF909FB04F8C4E7704700BF80B582B0CB
:1006B00000AF7860074A7B681360074B1B68986837
:1006C00000230222002110F01BFF00BF0837BD46A7
:1006D00080BD00BFFC0000249000002480B582B0E3
:1006E00000AF78607B68002B04DB7B68022B01DCA9
:1006F000012305E011F0DEF8034609221A60002309
:1007000018460837BD4680BD80B586B000AFF8609A
:10071000B9607A60FB68012B02D0FB68022B11D113
:100720000E4B18687B689AB24FF0FF33B9680BF034
:1007300083FA0346FB75FB7D002B01D17B6808E043
:10074000052306E011F0B6F8034609221A604FF0BF
:10075000FF3318461837BD4680BD00BFFC0000249B
:1007600080B582B000AF78607B68002B04DB7B68CB
:10077000022B01DC002306E011F09CF8034609225D
:100780001A604FF0FF3318460837BD4680BD80B56C
:1007900084B000AFF860B9607A6011F08BF803465E
:1007A00009221A604FF0FF3318461037BD4680BD4E
:1007B00080B586B000AFF860B9607A60FB68002B46
:1007C00010D10E4B18684FF0FF330122B9680BF0BF
:1007D000C1FA0346FB75FB7D002B01D1012308E024
:1007E000052306E011F066F8034609221A604FF06F
:1007F000FF3318461837BD4680BD00BFFC000024FB
:1008000080B582B000AF786039607B68002B08DB70
:100810007B68022B05DC3B684FF400525A600023D2
:1008200005E011F047F8034609221A600023184634
:100830000837BD4680BD000080B582B000AF0D4BCB
:10084000D3F8D8300B4A43F00103C2F8D830094B33
:10085000D3F8D83003F001037B607B6800220021CD
:100860000B2001F0E6FB0B2001F0FDFB00BF083779
:10087000BD4680BD0044025880B58CB000AF07F182
:100880001C0300221A605A609A60DA601A61354BC4
:10089000D3F8E030334A43F00403C2F8E030314B80
:1008A000D3F8E03003F00403BB61BB692D4BD3F8F0
:1008B000E0302C4A43F00203C2F8E030294BD3F871
:1008C000E03003F002037B617B69264BD3F8E03014
:1008D000244A43F00803C2F8E030224BD3F8E0305A
:1008E00003F008033B613B691E4BD3F8E0301D4A1F
:1008F00043F00103C2F8E0301A4BD3F8E03003F0C4
:100900000103FB60FB68174BD3F8E030154A43F056
:100910001003C2F8E030134BD3F8E03003F01003BB
:10092000BB60BB680F4BD3F8E0300E4A43F0800346
:10093000C2F8E0300B4BD3F8E03003F080037B606B
:100940007B684FF48073FB6100233B6202237B6270
:1009500007F11C031946044804F0E8F900BF3037DA
:10096000BD4680BD004402580000025880B500AF6B
:100970001B4B1C4A1A601A4B1B4A5A60184B002228
:100980009A60174B0122DA60154B00221A61144B52
:1009900000225A61124B00229A61114B0022DA6147
:1009A0000F4B00221A620E4804F088FB0346002B0E
:1009B00001D000F0C1FA0021094804F04DFF0346C0
:1009C000002B01D000F0B8FA0021054804F08FFF99
:1009D0000346002B01D000F0AFFA00BF80BD00BF7E
:1009E0000001002400540040B175703080B5BAB0E9
:1009F00000AF786007F1D40300221A605A609A6051
:100A0000DA601A6107F11003C0220021184610F0C5
:100A100003FF7B681B68264A934245D14FF00802CA
:100A20004FF00003C7E904230023C7F8943007F10F
:100A30001003184605F0C8FF0346002B01D000F054
:100A40007BFA1C4BD3F8E0301A4A43F00203C2F899
:100A5000E030184BD3F8E03003F00203FB60FB6892
:100A6000C023C7F8D4301223C7F8D8300123C7F801
:100A7000DC300223C7F8E0300423C7F8E43007F184
:100A8000D40319460C4804F051F90A4BD3F8E83066
:100A9000084A43F40013C2F8E830064BD3F8E830B4
:100AA00003F40013BB60BB6800BFE837BD4680BDE0
:100AB00000540040004402580004025880B582B03F
:100AC00000AF01F019F900F091F9FFF7D5FEFFF73B
:100AD000B3FE00F037FAFFF749FF00F02DFD00F0FC
:100AE00033FB0DF055F8A648FFF7E0FDA54810F0E0
:100AF000FFFC00F057FE0346002B04D0A24810F084
:100B0000F7FC00BFFDE7A14810F0F2FC0A2001F05D
:100B100085F901F0BDF80321102000F0B4FE142087
:100B200000F04FFE1021002000F070FE01229849D5
:100B300098480FF077FC03461A46974B1A70964B6D
:100B40001B78002B08D0944B1B789922934994482A
:100B500010F066FC00BFFDE78D49924810F0AAF93D
:100B600003461A468C4B1A708B4B1B78002B08D00F
:100B7000894B1B789C228949894810F051FC00BFA1
:100B8000FDE78949874810F008FA03461A46824B68
:100B90001A700AE0854810F0ABFC8349814810F0D8
:100BA000FCF903461A467C4B1A707B4B1B78002BD2
:100BB00003D17D4B9B7D002BECD101227C497D48EC
:100BC0000FF076FC03461A46734B1A70724B1B7873
:100BD000002B08D0704B1B78A6227049704810F08B
:100BE0001FFC00BFFDE7744B2C22744971480FF0C5
:100BF00019FE03461A46684B1A70674B1B78002B88
:100C000008D0654B1B78A9226449654810F008FCA0
:100C100000BFFDE700237B600AE0684A7B6813445D
:100C20001B781946664810F0FBFB7B6801337B603C
:100C30007A68614B1B689A42EFD3604B93F82B3074
:100C40001A065E4B93F82A301B041A435B4B93F849
:100C500029301B021343594A92F8282013433B6062
:100C60003968584810F0DCFB3B68574AA2FB032365
:100C7000DB0DDBB218463B68544AA2FB0323590C38
:100C8000534BA3FB01235A0913461B019B1A9B00DC
:100C9000CA1AD3B21A4601464E4810F0C1FB464B61
:100CA0004FF400524C4943480FF0BCFD03461A462E
:100CB000394B1A70384B1B78002B08D0364B1B78F9
:100CC000B5223649364810F0ABFB00BFFDE74FF4C4
:100CD00000524149414808F0E1FE00BF404B1B78FB
:100CE000012BFBD0344B4FF400523E4931480FF0FA
:100CF00099FD03461A46284B1A70274B1B78002B88
:100D000008D0254B1B78BC222449254810F088FBCD
:100D100000BFFDE7284B1B68B3F5005F06D23248E1
:100D200010F0E6FB002123480FF0BBFE00BF2C4B68
:100D30001B78002BFBD0204B4FF4005226491D4856
:100D40000FF070FD03461A46134B1A70124B1B78B6
:100D5000002B08D0104B1B78C1221049104810F00E
:100D60005FFB00BFFDE7144B1B68B3F5005FB4D217
:100D70001D4810F0BDFB00210E480FF092FEACE7BD
:100D8000D048002460230108B8230108D4230108B7
:100D9000EC2301085801002454010024F023010829
:100DA000042401088C030024C0030024D60300247B
:100DB0001C240108D8040024080700240C47002440
:100DC0002824010830240108C728E6CA3BC637BEDC
:100DD00089888888442401080C0700243C470024A3
:100DE000384700240C2700245424010880B59CB007
:100DF00000AF07F124034C220021184610F00CFD2F
:100E00003B1D20220021184610F006FD022004F0B0
:100E1000BBFD00233B60304B9B692F4A43F44043AA
:100E200093612D4B9B6903F440433B602B4BDB6A82
:100E30002A4A43F00103D362284BDB6A03F0010323
:100E40003B603B6800BF244B9B6903F40053B3F540
:100E5000005FF8D101237B624FF48033BB62022331
:100E6000BB640223FB6405233B65C0237B6502232F
:100E7000BB650D23FB6502233B6608237B660023CD
:100E8000BB660023FB6607F12403184604F0B6FD99
:100E90000346002B01D000F04FF83F237B60032373
:100EA000BB600023FB6008233B6140237B61402340
:100EB000BB614FF48063FB6140233B623B1D042117
:100EC000184605F0F5F90346002B01D000F034F880
:100ED00000BF7037BD4680BD00480258000400586E
:100EE00080B582B000AF78600F4B1B78002B09D122
:100EF0004FF480520D490E4808F0D0FD0A4B0122F4
:100F00001A700CE0084B1B78012B08D14FF480526B
:100F10000849074808F0C2FD034B00221A7000BFC1
:100F20000837BD4680BD00BF384700240C27002489
:100F30003C4700240C07002480B400AF72B600BF09
:100F400000BFFDE780B500AF194B1A4A1A60184B75
:100F500000225A60164B00229A60154B4FF4005243
:100F60005A61134B00229A61114B00229A62104B76
:100F70000122DA610E4B4BF680321A620C4B0022D2
:100F8000DA600B4B0022DA62094B00221A63084B2D
:100F900000225A63022300220021054808F012FAB9
:100FA0000346002B01D0FFF7C7FF00BF80BD00BF85
:100FB0003C4700240458014080B5BAB000AF7860C7
:100FC00007F11003C0220021184610F025FC7B68B1
:100FD0001B68564A934240F0A5804FF480724FF050
:100FE0000003C7E904231923BB6140F2DF13FB614F
:100FF00027233B6202237B620223BB620023FB6246
:1010000000233B6300237B630123BB6607F11003CE
:10101000184605F0D9FC0346002B01D0FFF78CFFE2
:10102000434B1B68002B16D1424BD3F8F030414A9A
:1010300043F48003C2F8F0303E4BD3F8F03003F4B1
:101040008003FB60FB6800220021572000F0F1FFC5
:10105000572001F008F8364B1B680133344A1360FF
:101060004023C7F8D4300223C7F8D8300023C7F88C
:10107000DC300323C7F8E0300623C7F8E43007F17B
:10108000D40319462C4803F051FE3423C7F8D4305A
:101090000223C7F8D8300023C7F8DC300323C7F891
:1010A000E0300623C7F8E43007F1D403194623489B
:1010B00003F03CFE224B234A1A60214B57225A6010
:1010C0001F4B40229A601E4B0022DA601C4B4FF4EB
:1010D00080621A611A4B4FF400625A61184B4FF448
:1010E00000529A61164B0022DA61154B4FF4003220
:1010F0001A62134B00225A62114800F0CFFF0346D8
:10110000002B01D0FFF718FF7B680D4AC3F884203D
:101110000B4A7B6893637B68094AC3F88020084ABE
:101120007B68936300BFE837BD4680BD045801402B
:101130004C48002400440258000C02580010025889
:10114000D44700241000024080B400AF0B4B0C4A7F
:101150001A600A4B00225A60084B00229A60074B23
:101160004FF48042DA60054B00221A61034B0322E0
:101170005A6100BFBD465DF8047B704750480024AB
:101180000070005280B5BCB000AF786007F1DC039E
:1011900000221A605A609A60DA601A6107F1180337
:1011A000C0220021184610F037FB7B681B68384AC4
:1011B000934269D14FF480324FF00003C7E9062310
:1011C0000023BB6607F11803184605F0FDFB034634
:1011D000002B01D0FFF7B0FE2E4BD3F8D4302D4AB0
:1011E00043F48033C2F8D4302A4BD3F8D43003F41C
:1011F00080337B617B69274BD3F8E030254A43F08D
:101200000403C2F8E030234BD3F8E03003F00403CA
:101210003B613B691F4BD3F8E0301E4A43F00803A3
:10122000C2F8E0301B4BD3F8E03003F00803FB605A
:10123000FB684FF4F853C7F8DC300223C7F8E030FE
:101240000023C7F8E4300323C7F8E8300C23C7F8BD
:10125000EC3007F1DC0319460F4803F067FD042367
:10126000C7F8DC300223C7F8E0300023C7F8E430C9
:101270000323C7F8E8300C23C7F8EC3007F1DC0390
:101280001946064803F052FD00BFF037BD4680BD49
:10129000007000520044025800080258000C025826
:1012A00080B483B000AF0A4BD3F8F430084A43F05F
:1012B0000203C2F8F430064BD3F8F43003F0020313
:1012C0007B607B6800BF0C37BD465DF8047B7047D0
:1012D0000044025880B400AF00BFFDE780B400AF07
:1012E00000BFFDE780B400AF00BFFDE780B400AFF2
:1012F00000BFFDE780B400AF00BFFDE780B400AFE2
:1013000000BFBD465DF8047B704780B400AF00BFEE
:10131000BD465DF8047B704780B400AF00BFBD469A
:101320005DF8047B704780B500AF00F057FD00BF4B
:1013300080BD000080B500AF024802F0D9F900BFBF
:1013400080BD00BFD447002480B500AF024808F03C
:101350005BFC00BF80BD00BF3C47002480B586B069
:1013600000AF7860144A154BD31A7B617B693B61EF
:10137000134B1B68002B02D1114B124A1A60104B01
:101380001A687B6813443A699A4207D210F092FABD
:1013900003460C221A604FF0FF3309E0084B1B682C
:1013A000FB60074B1A687B681344054A1360FB68AF
:1013B00018461837BD4680BD0000082400400000D4
:1013C000CC480024F04C002480B400AF434BD3F849
:1013D0008830424A43F47003C2F88830404B1B689F
:1013E00003F00F03062B07D83D4B1B6823F00F03B8
:1013F0003B4A43F0070313603A4B1B68394A43F0FA
:1014000001031360374B00221A61364B1A683549C5
:10141000354B13400B60324B1B6803F00803002B65
:1014200007D02F4B1B6823F00F032D4A43F007030F
:1014300013602C4B00229A612A4B0022DA61294B5F
:1014400000221A62274B294A9A62264B284ADA62FE
:10145000244B284A1A63234B00225A63214B254A06
:101460009A63204B0022DA631E4B224A1A641D4BFA
:1014700000225A641B4B1B681A4A23F48023136012
:10148000184B00221A661C4B1A681C4B1340B3F110
:10149000005F02D21A4B01221A60124BD3F8D430EB
:1014A00003F48053002B13D10E4BD3F8D4300D4AE4
:1014B00043F48053C2F8D430124B43F2D2021A6084
:1014C000084BD3F8D430074A23F48053C2F8D43001
:1014D00000BFBD465DF8047B704700BF00ED00E033
:1014E00000200052004402587FEDF6EA000202029A
:1014F0000000FF01800201010010005C0000FFFFFE
:10150000088100510040005280B400AF094BDB68F5
:10151000084A43F00203D36000BF064B5B6803F444
:101520000053002BF9D000BF00BFBD465DF8047B1F
:10153000704700BF0048025880B500AF224B234AD5
:101540001A60214B4FF4E1325A601F4B00229A601F
:101550001D4B0022DA601C4B00221A611A4B0C2230
:101560005A61194B00229A61174B0022DA61164B1F
:1015700000221A62144B00225A62134B00229A6214
:1015800011480AF009FB0346002B01D0FFF7D4FCF9
:1015900000210D480BF067FC0346002B01D0FFF73C
:1015A000CBFC002108480BF09CFC0346002B01D02B
:1015B000FFF7C2FC04480BF01DFC0346002B01D0D2
:1015C000FFF7BAFC00BF80BDD048002400100140E6
:1015D00080B5BAB000AF786007F1D40300221A607A
:1015E0005A609A60DA601A6107F11003C022002184
:1015F000184610F011F97B681B68274A934246D1C0
:101600004FF001024FF00003C7E904230023C7F89D
:101610008C3007F11003184605F0D6F90346002B6D
:1016200001D0FFF789FC1D4BD3F8F0301B4A43F083
:101630001003C2F8F030194BD3F8F03003F0100368
:10164000FB60FB68154BD3F8E030144A43F001030C
:10165000C2F8E030114BD3F8E03003F00103BB6077
:10166000BB684FF4C063C7F8D4300223C7F8D83042
:101670000023C7F8DC300023C7F8E0300723C7F8A1
:10168000E43007F1D4031946054803F04FFB00BFCF
:10169000E837BD4680BD00BF00100140004402583D
:1016A00000000258DFF838D0FFF72EFFFFF78CFE5E
:1016B0000C480D490D4A002302E0D458C4500433AD
:1016C000C4188C42F9D30A4A0A4C002301E0136083
:1016D0000432A242FBD310F0F3F8FFF7EFF97047A2
:1016E0000000082400000024E000002478D1030852
:1016F000E0000024F04C0024FEE7000080B586B036
:1017000002AF03460A46FB711346BB80BB881B022F
:101710009BB2FB81FB791BB25B001BB2DBB21AB23E
:10172000BB881B0A9BB21BB203F001031BB213431D
:101730001AB2FB891BB213431BB29BB2FB8107F1A8
:101740000E024FF48043009302233421064803F035
:1017500051FD0346002B01D1002300E00123184670
:101760001037BD4680BD00BF0001002480B584B0A5
:1017700000AF03460A46FB711346BB80BA88FB796B
:1017800011461846FFF7BAFF0346FB73FB7904497D
:10179000BA8821F81320FB7B18461037BD4680BD60
:1017A0000800002480B582B000AF00F071FA034653
:1017B000FB71012000F056FAFB7918460837BD4648
:1017C00080BD80B584B000AF0346FB71FB793F2B31
:1017D00001D93F23FB71FB79FB81FB79BB81FB893D
:1017E00019463420FFF7C2FFBB8943F480739BB2D4
:1017F00019463520FFF7BAFF00BF1037BD4680BD40
:1018000080B500AF00F044FA00BF80BD80B584B061
:1018100000AF03460A46FB8013467B710023FB8121
:10182000FB88002B04D1FB8943F01003FB810EE001
:10183000FB88012B04D1FB8943F00803FB8106E000
:10184000FB88022B03D0FB8943F01803FB817B79D3
:10185000182B04D1FB8943F04003FB8106E07B7920
:10186000202B03D1FB8943F06003FB81FB891946E0
:101870000420FFF77BFF00210620FFF777FF00BF62
:101880001037BD4680BD80B584B000AF03460A4620
:10189000FB801346BB80FB88002B05D1BB88002B47
:1018A00002D1FFF7ADFFDAE10B23FB81BB8803F028
:1018B0000803002B03D0FB8943F0C003FB81FB88A6
:1018C00003F00103002B04D1FB8803F00203002B7B
:1018D00003D0FB8943F01003FB81FB8919460120EB
:1018E000FFF744FF0023FB81BB8803F00103002BBB
:1018F00003D0FB8943F08003FB81BB8803F0020324
:10190000002B03D0FB8943F48073FB81FB8803F039
:101910000103002B03D0FB8943F01403FB81FB88F8
:1019200003F00203002B03D0FB8943F02803FB8163
:10193000FB8803F00403002B03D0FB8943F0300342
:10194000FB81FB8803F00203002B03D0FB8943F0EB
:101950002803FB81FB8803F02003002B03D0FB89C5
:1019600043F00303FB81FB8919460220FFF7FEFECB
:101970000023FB81BB8803F00803002B03D0FB8905
:1019800043F4C073FB81BB8803F00403002B03D036
:10199000FB8943F06003FB81BB88002B03D0FB89EC
:1019A00043F00C03FB81FB8803F01003002B03D0F2
:1019B000FB8943F00303FB81FB8919460320FFF7F2
:1019C000D5FE0023FB81FB8803F00403002B03D02A
:1019D000FB8943F04403FB81FB8803F00203002BE7
:1019E00003D0FB8943F03003FB81FB8803F0010344
:1019F000002B03D0FB8943F00303FB81FB891946CD
:101A00002C20FFF7B3FEFB8803F02003002B02D04D
:101A10000C23FB8101E00023FB81FB8919460E208A
:101A2000FFF7A4FEFB8803F02003002B17D0002350
:101A3000FB81FB8919461B20FFF798FE0023FB81E1
:101A4000FB8919461C20FFF791FEFB8919461D20D2
:101A5000FFF78CFEFB8919461E20FFF787FE002347
:101A6000FB81FB8919462020FFF780FEFB89194680
:101A70002120FFF77BFEFB8919462220FFF776FE27
:101A80000723FB81FB8919462320FFF76FFE002304
:101A9000FB81FB8803F00103002B04D1FB8803F0DA
:101AA0000203002B03D0FB8943F48073FB81FB8886
:101AB00003F00803002B03D0FB8943F00303FB81F1
:101AC000FB8803F00403002B03D0FB8943F03003B1
:101AD000FB81FB8919462F20FFF748FEFB89194639
:101AE0003020FFF743FEFF23FB81FB8919460F20BF
:101AF000FFF73CFE40F2FF13FB81FB8919461020E3
:101B0000FFF734FE0023FB81BB8803F00403002BA6
:101B100003D0FB8943F01003FB81FB8803F008032B
:101B2000002B03D0FB8943F00F03FB81FB8919468F
:101B30002B20FFF71BFE0023FB81FB8803F0100323
:101B4000002B03D0FB8943F06003FB81BB8803F0CB
:101B50000403002B03D0FB8943F00603FB81BB8801
:101B600003F00803002B03D0FB8943F01803FB812B
:101B7000FB8919463120FFF7F9FD0023FB81FB8823
:101B800003F00803002B03D0FB8943F4F073FB81BF
:101B9000FB8803F00403002B09D1FB8803F0010349
:101BA000002B04D1FB8803F00203002B03D0FB8938
:101BB00043F01E03FB81FB8803F01003002B03D0CE
:101BC000FB8943F00103FB81FB8919463220FFF7B3
:101BD000CDFDFB8919463320FFF7C8FD0023FB81AB
:101BE000BB8803F00803002B03D0FB8943F00803F4
:101BF000FB81FB8919463820FFF7B8FD0023FB81E4
:101C0000BB8803F00803002B03D0FB8943F01203C9
:101C1000FB81FB8919463920FFF7A8FDFB8803F0FB
:101C20001003002B09D0FF210B20FFF79FFD40F28E
:101C3000FF110C20FFF79AFD08E000210B20FFF7B1
:101C400095FD4FF480710C20FFF790FDFB8803F0A9
:101C50001003002B03D000210A20FFF787FD103767
:101C6000BD4680BD80B584B000AF0346FB71FB79F3
:101C7000002B02D10623FB8101E00723FB81FB89B6
:101C800019460820FFF772FD00BF1037BD4680BD22
:101C900080B59EB000AF164A3B46114674221846E6
:101CA0000FF035FE00210020FFF760FD034687F8A6
:101CB0007630002387F8773010E097F8773097F880
:101CC00077205B0078333B4433F8781C094B23F8CA
:101CD000121097F87730013387F8773097F877301C
:101CE000392BEAD997F8763018467837BD4680BD4B
:101CF0005C2401080800002480B582B000AF0320F6
:101D000000F08CF904F08AFC0246154B9B691B0A13
:101D100003F00F031349CB5C03F01F0322FA03F314
:101D20007B600F4B9B6903F00F030E4AD35C03F0FB
:101D30001F037A6822FA03F30B4A13600B4A7B688D
:101D400013600F2000F014F80346002B01D001238C
:101D500002E0FFF7A5FA002318460837BD4680BD0C
:101D60000044025818250108040000240000002443
:101D700080B582B000AF7860154B1B78002B01D185
:101D8000012321E0134B1A68114B1B7819464FF4BD
:101D90007A73B3FBF1F3B2FBF3F3184600F071F979
:101DA0000346002B01D001230EE07B680F2B0AD8DD
:101DB000002279684FF0FF3000F03BF9064A7B685B
:101DC0001360002300E0012318460837BD4680BD9C
:101DD00080000024000000247C00002480B400AFB8
:101DE000064B1B781A46064B1B681344044A1360C3
:101DF00000BFBD465DF8047B704700BF8000002433
:101E00006449002480B400AF034B1B681846BD46EC
:101E10005DF8047B704700BF6449002480B584B03E
:101E200000AF7860FFF7EEFFB8607B68FB60FB688F
:101E3000B3F1FF3F05D00A4B1B781A46FB681344E9
:101E4000FB6000BFFFF7DEFF0246BB68D31AFA68EB
:101E50009A42F7D800BF00BF1037BD4680BD00BF13
:101E60008000002480B400AF034B1B681B0C184695
:101E7000BD465DF8047B70470010005C80B485B0FF
:101E800000AF78607B6803F00703FB600B4BDB68F7
:101E9000BB60BA684FF6FF031340BB60FB681A02D1
:101EA000BB681A43064B1343BB60044ABB68D3604C
:101EB00000BF1437BD465DF8047B704700ED00E0BD
:101EC0000000FA0580B400AF044BDB681B0A03F086
:101ED00007031846BD465DF8047B704700ED00E03F
:101EE00080B483B000AF0346FB80B7F90630002B07
:101EF0000BDBFB8803F01F020749B7F906305B09CB
:101F0000012000FA02F241F8232000BF0C37BD4641
:101F10005DF8047B704700BF00E100E080B483B04F
:101F200000AF03463960FB80B7F90630002B0ADBAF
:101F30003B68DAB20C49B7F906301201D2B20B4451
:101F400083F800230AE03B68DAB20849FB8803F013
:101F50000F03043B1201D2B20B441A7600BF0C37B8
:101F6000BD465DF8047B704700E100E000ED00E055
:101F700080B489B000AFF860B9607A60FB6803F0A4
:101F80000703FB61FB69C3F10703042B28BF04238C
:101F9000BB61FB690433062B02D9FB69033B00E0FC
:101FA00000237B614FF0FF32BB6902FA03F3DA438F
:101FB000BB681A407B699A404FF0FF317B6901FA98
:101FC00003F3D9437B680B40134318462437BD46BF
:101FD0005DF8047B7047000080B582B000AF786088
:101FE0007B68013BB3F1807F01D301230FE00A4AF4
:101FF0007B68013B53600F214FF0FF30FFF78EFFEE
:10200000054B00229A60044B07221A6000231846F1
:102010000837BD4680BD00BF10E000E080B582B04B
:1020200000AF78607868FFF729FF00BF0837BD462A
:1020300080BD80B586B000AF0346B9607A60FB8191
:10204000FFF740FF78617A68B9687869FFF790FF19
:102050000246B7F90E3011461846FFF75FFF00BF82
:102060001837BD4680BD80B582B000AF0346FB8007
:10207000B7F906301846FFF733FF00BF0837BD46F3
:1020800080BD80B582B000AF78607868FFF7A4FFAC
:10209000034618460837BD4680BD000080B586B0AF
:1020A00000AF7860FFF7AEFE38617B68002B01D18E
:1020B000012316E37B681B68664A93424AD07B681B
:1020C0001B68654A934245D07B681B68634A93420C
:1020D00040D07B681B68624A93423BD07B681B6898
:1020E000604A934236D07B681B685F4A934231D086
:1020F0007B681B685D4A93422CD07B681B685C4AF6
:10210000934227D07B681B685A4A934222D07B684F
:102110001B68594A93421DD07B681B68574A9342FB
:1021200018D07B681B68564A934213D07B681B68A3
:10213000544A93420ED07B681B68534A934209D09D
:102140007B681B68514A934204D07B681B68504AE5
:10215000934201D1012300E00023002B00F03B81DA
:102160007B68022283F835207B68002283F83420C4
:102170007B681B68374A93424AD07B681B68364AA3
:10218000934245D07B681B68344A934240D07B68B9
:102190001B68334A93423BD07B681B68314A9342A9
:1021A00036D07B681B68304A934231D07B681B680D
:1021B0002E4A93422CD07B681B682D4A934227D02D
:1021C0007B681B682B4A934222D07B681B682A4A93
:1021D00093421DD07B681B68284A934218D07B68C5
:1021E0001B68274A934213D07B681B68254A934299
:1021F0000ED07B681B68244A934209D07B681B6819
:10220000224A934204D07B681B68214A934208D13A
:102210007B681B681A687B681B6822F001021A60E1
:1022200007E07B681B681A687B681B6822F0010264
:102230001A602FE0FFF7E6FD02463B69D31A052B33
:1022400028D97B6820225A657B68032283F83520D1
:10225000012346E2100002402800024040000240F4
:10226000580002407000024088000240A000024076
:10227000B80002401004024028040240400402401A
:10228000580402407004024088040240A004024046
:10229000B80402407B681B681B6803F00103002B35
:1022A000C8D17B681B681B687B617A69834B1340CC
:1022B0007B617B689A687B68DB681A437B681B6973
:1022C0001A437B685B691A437B689B691A437B6886
:1022D000DB691A437B681B6A13437A6913437B618A
:1022E0007B685B6A042B07D17B68DA6A7B681B6BAF
:1022F00013437A6913437B61714B1A68714B134026
:10230000B3F1005F28D37B685B68282B03D97B6817
:102310005B682E2B17D97B685B683E2B03D97B68E3
:102320005B68422B0FD97B685B68462B03D97B68BF
:102330005B68482B07D97B685B684E2B05D97B68A7
:102340005B68522B01D8012300E00023002B03D04F
:102350007B6943F480137B617B681B687A691A6030
:102360007B681B685B697B617B6923F007037B618A
:102370007B685B6A7A6913437B617B685B6A042BC9
:1023800017D17B689B6A7A6913437B617B68DB6A40
:10239000002B0ED0786802F03FFB0346002B08D0DC
:1023A0007B6840225A657B68012283F8352001232F
:1023B00097E17B681B687A695A61786802F07AFA5B
:1023C0000346BB607B68DB6D03F01F033F229A402E
:1023D000BB689A60CDE07B681B683B4A934222D081
:1023E0007B681B68394A93421DD07B681B68384A5A
:1023F000934218D07B681B68364A934213D07B689F
:102400001B68354A93420ED07B681B68334A93425F
:1024100009D07B681B68324A934204D07B681B68F2
:10242000304A934201D1012300E00023002B00F049
:1024300097807B681B68244A934221D07B681B6885
:10244000224A93421CD07B681B68214A934217D0D2
:102450007B681B681F4A934212D07B681B681E4A28
:1024600093420DD07B681B681C4A934208D07B685E
:102470001B681B4A934203D07B681B68194A93422E
:102480007B68022283F835207B68002283F83420A1
:102490007B681B681B687B617A69134B13407B6107
:1024A0007B689B68402B21D07B689B68802B02D186
:1024B0004FF480431BE0002319E000BF3F8010FE73
:1024C0000010005C0000FFFF085402581C54025822
:1024D0003054025844540258585402586C5402580C
:1024E00080540258945402580F00FEFF10237A685B
:1024F000D268D2081A437B681B69DB081A437B68E1
:102500005B69DB081A437B689B69DB081A437B68BD
:10251000DB69DB081A437B681B6A1B0913437A6972
:1025200013437B617B681B687A691A607B681B6850
:102530001A466E4B13446E4AA2FB03231B099A00F2
:102540007B68DA65786802F0B5F90346FB607B6862
:10255000DB6D03F01F0301229A40FB685A6008E01C
:102560007B6840225A657B68032283F8352001236B
:10257000B7E07B681B685F4A934272D07B681B6838
:102580005D4A93426DD07B681B685C4A934268D079
:102590007B681B685A4A934263D07B681B68594A20
:1025A00093425ED07B681B68574A934259D07B6840
:1025B0001B68564A934254D07B681B68544A934226
:1025C0004FD07B681B68534A93424AD07B681B6894
:1025D000514A934245D07B681B68504A934240D091
:1025E0007B681B684E4A93423BD07B681B684D4A10
:1025F000934236D07B681B684B4A934231D07B684C
:102600001B684A4A93422CD07B681B68484A934215
:1026100027D07B681B68474A934222D07B681B689F
:10262000454A93421DD07B681B68444A934218D0A8
:102630007B681B68424A934213D07B681B68414AFF
:1026400093420ED07B681B683F4A934209D07B6857
:102650001B683E4A934204D07B681B683C4A934205
:1026600001D1012300E00023002B32D0786802F072
:102670004FFA7B689B68802B02D17B6800225A60EE
:102680007B685A687B681B6ED2B21A607B685B6E8F
:102690007A68926E5A607B685B68002B10D07B680A
:1026A0005B68082B0CD8786802F0CCFA7B68DB6E8C
:1026B00000221A607B681B6F7A68526F5A6008E0CC
:1026C0007B680022DA667B6800221A677B6800223A
:1026D0005A677B6800225A657B68012283F835209F
:1026E000002318461837BD4680BD00BFF8ABFDA7D4
:1026F000CDCCCCCC1000024028000240400002406B
:10270000580002407000024088000240A0000240D1
:10271000B800024010040240280402404004024075
:10272000580402407004024088040240A0040240A1
:10273000B8040240085402581C540258305402583D
:1027400044540258585402586C5402588054025849
:102750009454025880B586B000AFF860B9607A60D2
:102760003B600023FB75FB68002B01D1012326E2AF
:10277000FB6893F83430012B01D102231FE2FB6880
:10278000012283F83420FB6893F83530DBB2012B4B
:1027900040F00A82FB68022283F83520FB680022A1
:1027A0005A65FB681B68684A93424AD0FB681B68FD
:1027B000664A934245D0FB681B68654A934240D005
:1027C000FB681B68634A93423BD0FB681B68624A04
:1027D000934236D0FB681B68604A934231D0FB6855
:1027E0001B685F4A93422CD0FB681B685D4A93428A
:1027F00027D0FB681B685C4A934222D0FB681B68A9
:102800005A4A93421DD0FB681B68594A934218D01C
:10281000FB681B68574A934213D0FB681B68564AF3
:1028200093420ED0FB681B68544A934209D0FB6860
:102830001B68534A934204D0FB681B68514A934279
:1028400008D1FB681B681A68FB681B6822F001024C
:102850001A6007E0FB681B681A68FB681B6822F0B7
:1028600001021A603B687A68B968F86801F076FE80
:10287000FB681B68344A93424AD0FB681B68334AA2
:10288000934245D0FB681B68314A934240D0FB68B5
:102890001B68304A93423BD0FB681B682E4A934228
:1028A00036D0FB681B682D4A934231D0FB681B6809
:1028B0002B4A93422CD0FB681B682A4A934227D0AC
:1028C000FB681B68284A934222D0FB681B68274A92
:1028D00093421DD0FB681B68254A934218D0FB68C1
:1028E0001B68244A934213D0FB681B68224A934218
:1028F0000ED0FB681B68214A934209D0FB681B6815
:102900001F4A934204D0FB681B681E4A934201D1C0
:10291000012300E00023002B36D0FB681B681B68F6
:1029200023F01E02FB681B6842F016021A60FB6867
:102930001B6C002B3ED0FB681B681A68FB681B6889
:1029400042F008021A6035E0100002402800024000
:1029500040000240580002407000024088000240DF
:10296000A0000240B80002401004024028040240C7
:1029700040040240580402407004024088040240AF
:10298000A0040240B8040240FB681B681B6823F0E7
:102990000E02FB681B6842F00A021A60FB681B6C9F
:1029A000002B07D0FB681B681A68FB681B6842F0A5
:1029B00004021A60FB681B68834A934272D0FB686A
:1029C0001B68824A93426DD0FB681B68804A934221
:1029D00068D0FB681B687F4A934263D0FB681B6822
:1029E0007D4A93425ED0FB681B687C4A934259D073
:1029F000FB681B687A4A934254D0FB681B68794A8B
:102A000093424FD0FB681B68774A93424AD0FB68D9
:102A10001B68764A934245D0FB681B68744A934210
:102A200040D0FB681B68734A93423BD0FB681B682D
:102A3000714A934236D0FB681B68704A934231D08A
:102A4000FB681B686E4A93422CD0FB681B686D4A7A
:102A5000934227D0FB681B686B4A934222D0FB68E5
:102A60001B686A4A93421DD0FB681B68684A934200
:102A700018D0FB681B68674A934213D0FB681B6839
:102A8000654A93420ED0FB681B68644A934209D0A2
:102A9000FB681B68624A934204D0FB681B68614A6A
:102AA000934201D1012300E00023002B1AD0FB68E0
:102AB0001B6E1B6803F48033002B07D0FB681B6E72
:102AC0001A68FB681B6E42F480721A60FB68DB6E4A
:102AD000002B07D0FB68DB6E1A68FB68DB6E42F4E4
:102AE00080721A60FB681B68374A93424AD0FB68C1
:102AF0001B68364A934245D0FB681B68344A9342B0
:102B000040D0FB681B68334A93423BD0FB681B688C
:102B1000314A934236D0FB681B68304A934231D029
:102B2000FB681B682E4A93422CD0FB681B682D4A19
:102B3000934227D0FB681B682B4A934222D0FB6844
:102B40001B682A4A93421DD0FB681B68284A93429F
:102B500018D0FB681B68274A934213D0FB681B6898
:102B6000254A93420ED0FB681B68244A934209D041
:102B7000FB681B68224A934204D0FB681B68214A09
:102B8000934208D1FB681B681A68FB681B6842F017
:102B900001021A6012E0FB681B681A68FB681B6878
:102BA00042F001021A6009E0FB684FF400625A65C6
:102BB000FB68002283F834200123FB75FB7D184657
:102BC0001837BD4680BD00BF1000024028000240FB
:102BD000400002405800024070000240880002405D
:102BE000A0000240B8000240100402402804024045
:102BF000400402405804024070040240880402402D
:102C0000A0040240B8040240085402581C54025860
:102C10003054025844540258585402586C540258C4
:102C2000805402589454025880B586B000AF786042
:102C3000FFF7E8F838617B68002B01D10123DCE263
:102C40007B6893F83530DBB2022B08D07B6880229A
:102C50005A657B68002283F834200123CDE27B682B
:102C60001B68764A93424AD07B681B68744A934239
:102C700045D07B681B68734A934240D07B681B68D1
:102C8000714A93423BD07B681B68704A934236D0AE
:102C90007B681B686E4A934231D07B681B686D4A23
:102CA00093422CD07B681B686B4A934227D07B6889
:102CB0001B686A4A934222D07B681B68684A934229
:102CC0001DD07B681B68674A934218D07B681B68DD
:102CD000654A934213D07B681B68644A93420ED0C6
:102CE0007B681B68624A934209D07B681B68614A13
:102CF000934204D07B681B685F4A934201D1012351
:102D000000E00023002B13D07B681B681A687B68E7
:102D10001B6822F01E021A607B681B685A697B6878
:102D20001B6822F080025A617B681B687B610AE0A5
:102D30007B681B681A687B681B6822F00E021A60A9
:102D40007B681B687B617B681B683C4A934272D03E
:102D50007B681B683A4A93426DD07B681B68394A8E
:102D6000934268D07B681B68374A934263D07B6884
:102D70001B68364A93425ED07B681B68344A934294
:102D800059D07B681B68334A934254D07B681B68D8
:102D9000314A93424FD07B681B68304A93424AD0F5
:102DA0007B681B682E4A934245D07B681B682D4A7E
:102DB000934240D07B681B682B4A93423BD07B6890
:102DC0001B682A4A934236D07B681B68284A934284
:102DD00031D07B681B68274A93422CD07B681B68E4
:102DE000254A934227D07B681B68244A934222D00D
:102DF0007B681B68224A93421DD07B681B68214A6E
:102E0000934218D07B681B681F4A934213D07B689B
:102E10001B681E4A93420ED07B681B681C4A934273
:102E200009D07B681B681B4A934204D07B681B68EF
:102E3000194A934232D1012331E000BF1000024011
:102E4000280002404000024058000240700002404A
:102E500088000240A0000240B80002401004024076
:102E6000280402404004024058040240700402401A
:102E700088040240A0040240B804024008540258EA
:102E80001C540258305402584454025858540258A2
:102E90006C54025880540258945402580023002B5A
:102EA00007D07B681B6E1A687B681B6E22F48072E9
:102EB0001A607B681B686D4A93424AD07B681B6826
:102EC0006B4A934245D07B681B686A4A934240D064
:102ED0007B681B68684A93423BD07B681B68674AE3
:102EE000934236D07B681B68654A934231D07B6839
:102EF0001B68644A93422CD07B681B68624A9342E9
:102F000027D07B681B68614A934222D07B681B688C
:102F10005F4A93421DD07B681B685E4A934218D07B
:102F20007B681B685C4A934213D07B681B685B4AD2
:102F300093420ED07B681B68594A934209D07B6844
:102F40001B68584A934204D07B681B68564A9342D8
:102F500008D17B681B681A687B681B6822F0010235
:102F60001A6007E07B681B681A687B681B6822F0A0
:102F700001021A6013E0FEF745FF02463B69D31ACF
:102F8000052B0CD97B6820225A657B68032283F8C5
:102F900035207B68002283F8342001232DE17B69F2
:102FA0001B6803F00103002BE5D17B681B682F4AE7
:102FB00093424AD07B681B682D4A934245D07B6878
:102FC0001B682C4A934240D07B681B682A4A934274
:102FD0003BD07B681B68294A934236D07B681B68CC
:102FE000274A934231D07B681B68264A93422CD0F3
:102FF0007B681B68244A934227D07B681B68234A5E
:10300000934222D07B681B68214A93421DD07B6883
:103010001B68204A934218D07B681B681E4A934263
:1030200013D07B681B681D4A93420ED07B681B68D7
:103030001B4A934209D07B681B681A4A934204D00A
:103040007B681B68184A934201D1012300E00023EA
:10305000002B2BD07B689B6DBB607B68DB6D03F026
:103060001F033F229A40BB689A602AE0100002408A
:103070002800024040000240580002407000024018
:1030800088000240A0000240B80002401004024044
:1030900028040240400402405804024070040240E8
:1030A00088040240A0040240B80402407B689B6D83
:1030B000FB607B68DB6D03F01F0301229A40FB6815
:1030C0005A607B681B684F4A934272D07B681B68CA
:1030D0004D4A93426DD07B681B684C4A934268D03E
:1030E0007B681B684A4A934263D07B681B68494AE5
:1030F00093425ED07B681B68474A934259D07B68F5
:103100001B68464A934254D07B681B68444A9342EA
:103110004FD07B681B68434A93424AD07B681B6848
:10312000414A934245D07B681B68404A934240D055
:103130007B681B683E4A93423BD07B681B683D4AD4
:10314000934236D07B681B683B4A934231D07B6800
:103150001B683A4A93422CD07B681B68384A9342DA
:1031600027D07B681B68374A934222D07B681B6854
:10317000354A93421DD07B681B68344A934218D06D
:103180007B681B68324A934213D07B681B68314AC4
:1031900093420ED07B681B682F4A934209D07B680C
:1031A0001B682E4A934204D07B681B682C4A9342CA
:1031B00001D1012300E00023002B15D07B685B6E5A
:1031C0007A68926E5A607B68DB6E002B0CD07B684D
:1031D000DB6E1A687B68DB6E22F480721A607B6893
:1031E0001B6F7A68526F5A607B68012283F8352022
:1031F0007B68002283F83420002318461837BD4628
:1032000080BD00BF10000240280002404000024084
:10321000580002407000024088000240A0000240B6
:10322000B80002401004024028040240400402405A
:10323000580402407004024088040240A004024086
:10324000B8040240085402581C5402583054025822
:1032500044540258585402586C540258805402582E
:103260009454025880B584B000AF78607B68002B1E
:1032700001D1012337E27B6893F83530DBB2022BB2
:1032800004D07B6880225A6501232CE27B681B688E
:103290005C4A93424AD07B681B685B4A934245D0A4
:1032A0007B681B68594A934240D07B681B68584A28
:1032B00093423BD07B681B68564A934236D07B686A
:1032C0001B68554A934231D07B681B68534A93422E
:1032D0002CD07B681B68524A934227D07B681B68BE
:1032E000504A934222D07B681B684F4A93421DD0BC
:1032F0007B681B684D4A934218D07B681B684C4A18
:10330000934213D07B681B684A4A93420ED07B6875
:103310001B68494A934209D07B681B68474A93421D
:1033200004D07B681B68464A934201D1012300E028
:103330000023002B00F086807B68042283F8352070
:103340007B681B682F4A93424AD07B681B682E4AD1
:10335000934245D07B681B682C4A934240D07B68DF
:103360001B682B4A93423BD07B681B68294A9342D7
:1033700036D07B681B68284A934231D07B681B6833
:10338000264A93422CD07B681B68254A934227D05B
:103390007B681B68234A934222D07B681B68224AC1
:1033A00093421DD07B681B68204A934218D07B68EB
:1033B0001B681F4A934213D07B681B681D4A9342C7
:1033C0000ED07B681B681C4A934209D07B681B683F
:1033D0001A4A934204D07B681B68194A934208D169
:1033E0007B681B681A687B681B6822F001021A6000
:1033F00078E17B681B681A687B681B6822F0010211
:103400001A606FE1100002402800024040000240B4
:10341000580002407000024088000240A0000240B4
:10342000B800024010040240280402404004024058
:10343000580402407004024088040240A004024084
:10344000B80402407B681B681A687B681B6822F01E
:103450000E021A607B681B686C4A93424AD07B68F4
:103460001B686B4A934245D07B681B68694A93424C
:1034700040D07B681B68684A93423BD07B681B68DE
:10348000664A934236D07B681B68654A934231D0C6
:103490007B681B68634A93422CD07B681B68624A36
:1034A000934227D07B681B68604A934222D07B6896
:1034B0001B685F4A93421DD07B681B685D4A93423C
:1034C00018D07B681B685C4A934213D07B681B68EA
:1034D0005A4A93420ED07B681B68594A934209D0DE
:1034E0007B681B68574A934204D07B681B68564A26
:1034F000934208D17B681B681A687B681B6822F0BE
:1035000001021A6007E07B681B681A687B681B6809
:1035100022F001021A607B681B683C4A934272D019
:103520007B681B683A4A93426DD07B681B68394AB6
:10353000934268D07B681B68374A934263D07B68AC
:103540001B68364A93425ED07B681B68344A9342BC
:1035500059D07B681B68334A934254D07B681B6800
:10356000314A93424FD07B681B68304A93424AD01D
:103570007B681B682E4A934245D07B681B682D4AA6
:10358000934240D07B681B682B4A93423BD07B68B8
:103590001B682A4A934236D07B681B68284A9342AC
:1035A00031D07B681B68274A93422CD07B681B680C
:1035B000254A934227D07B681B68244A934222D035
:1035C0007B681B68224A93421DD07B681B68214A96
:1035D000934218D07B681B681F4A934213D07B68C4
:1035E0001B681E4A93420ED07B681B681C4A93429C
:1035F00009D07B681B681B4A934204D07B681B6818
:10360000194A934232D1012331E000BF1000024039
:103610002800024040000240580002407000024072
:1036200088000240A0000240B8000240100402409E
:103630002804024040040240580402407004024042
:1036400088040240A0040240B80402400854025812
:103650001C540258305402584454025858540258CA
:103660006C54025880540258945402580023002B82
:1036700028D07B681B6E1A687B681B6E22F48072F0
:103680001A607B689B6DFB607B68DB6D03F01F033A
:1036900001229A40FB685A607B685B6E7A68926E82
:1036A0005A607B68DB6E002B0CD07B68DB6E1A687F
:1036B0007B68DB6E22F480721A607B681B6F7A680D
:1036C000526F5A607B68012283F835207B680022A4
:1036D00083F834207B681B6D002B03D07B681B6D47
:1036E00078689847002318461037BD4680BD00BF54
:1036F00080B58AB000AF78600023FB60674B1B6821
:10370000674AA2FB03239B0A7B627B689B6D3B623B
:103710007B689B6DFB613B6A1B68BB61FB691B6837
:103720007B617B681B685F4A93424AD07B681B6859
:103730005D4A934245D07B681B685C4A934240D007
:103740007B681B685A4A93423BD07B681B68594A86
:10375000934236D07B681B68574A934231D07B68CE
:103760001B68564A93422CD07B681B68544A93428C
:1037700027D07B681B68534A934222D07B681B6822
:10378000514A93421DD07B681B68504A934218D01F
:103790007B681B684E4A934213D07B681B684D4A76
:1037A00093420ED07B681B684B4A934209D07B68DA
:1037B0001B684A4A934204D07B681B68484A93427C
:1037C00001D1012300E00023002B00F02B847B6853
:1037D000DB6D03F01F0308229A40BB691340002BE6
:1037E00000F0A2807B681B682E4A93424AD07B6817
:1037F0001B682D4A934245D07B681B682B4A934235
:1038000040D07B681B682A4A93423BD07B681B6888
:10381000284A934236D07B681B68274A934231D0AE
:103820007B681B68254A93422CD07B681B68244A1E
:10383000934227D07B681B68224A934222D07B6840
:103840001B68214A93421DD07B681B681F4A934224
:1038500018D07B681B681E4A934213D07B681B6894
:103860001C4A93420ED07B681B681B4A934209D0C6
:103870007B681B68194A934204D07B681B68184A0E
:1038800093422FD17B681B681B6803F00403002B55
:1038900014BF01230023DBB22EE000BF0000002490
:1038A000B5814E1B1000024028000240400002403B
:1038B000580002407000024088000240A000024010
:1038C000B8000240100402402804024040040240B4
:1038D000580402407004024088040240A0040240E0
:1038E000B80402407B681B681B6803F00803002BC8
:1038F00014BF01230023DBB2002B15D07B681B68AB
:103900001A687B681B6822F004021A607B68DB6D12
:1039100003F01F0308229A403B6A9A607B685B6D44
:1039200043F001027B685A657B68DB6D03F01F037F
:10393000BA6922FA03F303F00103002B6ED07B680F
:103940001B68694A93424AD07B681B68674A934266
:1039500045D07B681B68664A934240D07B681B68F1
:10396000644A93423BD07B681B68634A934236D0DB
:103970007B681B68614A934231D07B681B68604A50
:1039800093422CD07B681B685E4A934227D07B68A9
:103990001B685D4A934222D07B681B685B4A934256
:1039A0001DD07B681B685A4A934218D07B681B68FD
:1039B000584A934213D07B681B68574A93420ED0F3
:1039C0007B681B68554A934209D07B681B68544A40
:1039D000934204D07B681B68524A93420AD17B68A9
:1039E0001B685B6903F08003002B14BF01230023D5
:1039F000DBB203E07B681B681B680023002B0DD043
:103A00007B68DB6D03F01F0301229A403B6A9A60DA
:103A10007B685B6D43F002027B685A657B68DB6DF7
:103A200003F01F0304229A40BB691340002B00F0EF
:103A30008F807B681B682C4A93424AD07B681B6846
:103A40002A4A934245D07B681B68294A934240D05A
:103A50007B681B68274A93423BD07B681B68264AD9
:103A6000934236D07B681B68244A934231D07B68EE
:103A70001B68234A93422CD07B681B68214A9342DF
:103A800027D07B681B68204A934222D07B681B6842
:103A90001E4A93421DD07B681B681D4A934218D072
:103AA0007B681B681B4A934213D07B681B681A4AC9
:103AB00093420ED07B681B68184A934209D07B68FA
:103AC0001B68174A934204D07B681B68154A9342CF
:103AD0002AD17B681B681B6803F00203002B14BF0C
:103AE00001230023DBB223E0100002402800024043
:103AF000400002405800024070000240880002402E
:103B0000A0000240B8000240100402402804024015
:103B100040040240580402407004024088040240FD
:103B2000A0040240B80402407B681B681B680023A5
:103B3000002B0DD07B68DB6D03F01F0304229A403D
:103B40003B6A9A607B685B6D43F004027B685A6550
:103B50007B68DB6D03F01F0310229A40BB691340A2
:103B6000002B00F0A6807B681B68854A93424AD0F0
:103B70007B681B68834A934245D07B681B68824AF6
:103B8000934240D07B681B68804A93423BD07B685D
:103B90001B687F4A934236D07B681B687D4A9342FC
:103BA00031D07B681B687C4A93422CD07B681B68B1
:103BB0007A4A934227D07B681B68794A934222D085
:103BC0007B681B68774A93421DD07B681B68764AE6
:103BD000934218D07B681B68744A934213D07B6869
:103BE0001B68734A93420ED07B681B68714A9342EC
:103BF00009D07B681B68704A934204D07B681B68BD
:103C00006E4A93420AD17B681B681B6803F0080365
:103C1000002B14BF01230023DBB209E07B681B6883
:103C20001B6803F00403002B14BF01230023DBB245
:103C3000002B3ED07B68DB6D03F01F0310229A40FF
:103C40003B6A9A607B681B681B6803F48023002B27
:103C500018D07B681B681B6803F40023002B08D175
:103C60007B681B6C002B24D07B681B6C78689847A2
:103C70001FE07B689B6C002B1BD07B689B6C78687B
:103C8000984716E07B681B681B6803F48073002B61
:103C900007D17B681B681A687B681B6822F00802E2
:103CA0001A607B681B6C002B03D07B681B6C7868E8
:103CB00098477B68DB6D03F01F0320229A40BB69A5
:103CC0001340002B00F010817B681B682C4A934244
:103CD0004AD07B681B682B4A934245D07B681B689F
:103CE000294A934240D07B681B68284A93423BD0C4
:103CF0007B681B68264A934236D07B681B68254A3E
:103D0000934231D07B681B68234A93422CD07B6856
:103D10001B68224A934227D07B681B68204A934243
:103D200022D07B681B681F4A93421DD07B681B68AA
:103D30001D4A934218D07B681B681C4A934213D0DB
:103D40007B681B681A4A93420ED07B681B68194A2D
:103D5000934209D07B681B68174A934204D07B6862
:103D60001B68164A93422BD17B681B681B6803F0C3
:103D70001003002B14BF01230023DBB22AE000BF95
:103D8000100002402800024040000240580002405B
:103D90007000024088000240A0000240B8000240CB
:103DA000100402402804024040040240580402402B
:103DB0007004024088040240A0040240B80402409B
:103DC0007B681B681B6803F00203002B14BF0123F0
:103DD0000023DBB2002B00F087807B68DB6D03F0F3
:103DE0001F0320229A403B6A9A607B6893F8353023
:103DF000DBB2042B39D17B681B681A687B681B68AF
:103E000022F016021A607B681B685A697B681B687F
:103E100022F080025A617B681B6C002B03D17B6807
:103E20009B6C002B07D07B681B681A687B681B683B
:103E300022F008021A607B68DB6D03F01F033F224B
:103E40009A403B6A9A607B68012283F835207B6840
:103E5000002283F834207B681B6D002B00F04A831E
:103E60007B681B6D7868984744E37B681B681B6818
:103E700003F48023002B18D07B681B681B6803F4B5
:103E80000023002B08D17B685B6C002B2CD07B6857
:103E90005B6C7868984727E07B68DB6B002B23D04E
:103EA0007B68DB6B786898471EE07B681B681B6843
:103EB00003F48073002B0FD17B681B681A687B6842
:103EC0001B6822F010021A607B68012283F83520FB
:103ED0007B68002283F834207B68DB6B002B03D0E7
:103EE0007B68DB6B786898477B685B6D002B00F024
:103EF00006837B685B6D03F00103002B00F0888074
:103F00007B68042283F835207B681B687A4A9342D9
:103F10004AD07B681B68794A934245D07B681B680E
:103F2000774A934240D07B681B68764A93423BD0E5
:103F30007B681B68744A934236D07B681B68734A5F
:103F4000934231D07B681B68714A93422CD07B68C6
:103F50001B68704A934227D07B681B686E4A934265
:103F600022D07B681B686D4A93421DD07B681B681A
:103F70006B4A934218D07B681B686A4A934213D0FD
:103F80007B681B68684A93420ED07B681B68674A4F
:103F9000934209D07B681B68654A934204D07B68D2
:103FA0001B68644A934208D17B681B681A687B6867
:103FB0001B6822F001021A6007E07B681B681A6820
:103FC0007B681B6822F001021A60FB680133FB600A
:103FD0007A6A9A4207D37B681B681B6803F0010367
:103FE000002BF2D100E000BF7B681B681B6803F068
:103FF0000103002B04D07B68032283F8352003E003
:104000007B68012283F835207B68002283F8342006
:104010007B68DB6C002B00F072827B68DB6C78685D
:1040200098476CE27B681B68434A934222D07B68C6
:104030001B68424A93421DD07B681B68404A9342EA
:1040400018D07B681B683F4A934213D07B681B687B
:104050003D4A93420ED07B681B683C4A934209D08C
:104060007B681B683A4A934204D07B681B68394AD4
:10407000934201D1012300E00023002B00F03F8296
:104080007B681B681B683B617B68DB6D03F01F036B
:1040900004229A407B691340002B00F0CD803B69DD
:1040A00003F00403002B00F0C7807B68DB6D03F096
:1040B0001F0304229A40FB695A603B6903F40043E2
:1040C000002B49D03B6903F48033002B09D17B6876
:1040D0009B6C002B00F010827B689B6C7868984783
:1040E0000AE27B681B6C002B00F006827B681B6C6D
:1040F0007868984700E200BF1000024028000240A4
:104100004000024058000240700002408800024017
:10411000A0000240B80002401004024028040240FF
:1041200040040240580402407004024088040240E7
:10413000A0040240B8040240085402581C5402581B
:104140003054025844540258585402586C5402587F
:1041500080540258945402583B6903F02003002B0A
:1041600060D17B681B687F4A93424AD07B681B689A
:104170007D4A934245D07B681B687C4A934240D07D
:104180007B681B687A4A93423BD07B681B68794AFC
:10419000934236D07B681B68774A934231D07B6864
:1041A0001B68764A93422CD07B681B68744A934202
:1041B00027D07B681B68734A934222D07B681B68B8
:1041C000714A93421DD07B681B68704A934218D095
:1041D0007B681B686E4A934213D07B681B686D4AEC
:1041E00093420ED07B681B686B4A934209D07B6870
:1041F0001B686A4A934204D07B681B68684A9342F2
:1042000008D17B681B681A687B681B6822F008026B
:104210001A6007E07B681B681A687B681B6822F0DD
:1042200004021A607B681B6C002B00F065817B68C0
:104230001B6C786898475FE17B68DB6D03F01F03B8
:1042400002229A407B691340002B00F0C5803B6935
:1042500003F00203002B00F0BF807B68DB6D03F0EE
:104260001F0302229A40FB695A603B6903F4004332
:10427000002B18D03B6903F48033002B09D17B68F5
:104280005B6C002B00F03A817B685B6C7868984728
:1042900034E17B68DB6B002B00F030817B68DB6BEB
:1042A000786898472AE13B6903F02003002B40F02F
:1042B00089807B681B682B4A93424AD07B681B68C5
:1042C000294A934245D07B681B68284A934240D0D4
:1042D0007B681B68264A93423BD07B681B68254A53
:1042E000934236D07B681B68234A934231D07B6867
:1042F0001B68224A93422CD07B681B68204A934259
:1043000027D07B681B681F4A934222D07B681B68BA
:104310001D4A93421DD07B681B681C4A934218D0EB
:104320007B681B681A4A934213D07B681B68194A42
:1043300093420ED07B681B68174A934209D07B6872
:104340001B68164A934204D07B681B68144A934248
:1043500028D17B681B681A687B681B6822F01402EE
:104360001A6027E01000024028000240400002408E
:10437000580002407000024088000240A000024045
:10438000B8000240100402402804024040040240E9
:10439000580402407004024088040240A004024015
:1043A000B80402407B681B681A687B681B6822F0AF
:1043B0000A021A607B68012283F835207B6800229C
:1043C00083F834207B68DB6B002B00F097807B68E0
:1043D000DB6B7868984791E07B68DB6D03F01F0327
:1043E00008229A407B691340002B00F088803B69CB
:1043F00003F00803002B00F082807B681B68414AB1
:1044000093424AD07B681B683F4A934245D07B6801
:104410001B683E4A934240D07B681B683C4A9342EB
:104420003BD07B681B683B4A934236D07B681B6855
:10443000394A934231D07B681B68384A93422CD06A
:104440007B681B68364A934227D07B681B68354AD5
:10445000934222D07B681B68334A93421DD07B680D
:104460001B68324A934218D07B681B68304A9342DB
:1044700013D07B681B682F4A93420ED07B681B6861
:104480002D4A934209D07B681B682C4A934204D082
:104490007B681B682A4A934208D17B681B681A68AC
:1044A0007B681B6822F01C021A6007E07B681B68AF
:1044B0001A687B681B6822F00E021A607B68DB6D4D
:1044C00003F01F0301229A40FB695A607B680122B6
:1044D0005A657B68012283F835207B68002283F8C7
:1044E00034207B68DB6C002B09D07B68DB6C786840
:1044F000984704E000BF02E000BF00E000BF28379B
:10450000BD4680BD1000024028000240400002402D
:10451000580002407000024088000240A0000240A3
:10452000B800024010040240280402404004024047
:10453000580402407004024088040240A004024073
:10454000B804024080B483B000AF78607B685B6DD4
:1045500018460C37BD465DF8047B704780B487B0C1
:1045600000AFF860B9607A603B60FB689B6D7B616F
:10457000FB689B6D3B61FB681B687F4A934272D06E
:10458000FB681B687D4A93426DD0FB681B687C4AC0
:10459000934268D0FB681B687A4A934263D0FB68F9
:1045A0001B68794A93425ED0FB681B68774A934246
:1045B00059D0FB681B68764A934254D0FB681B684D
:1045C000744A93424FD0FB681B68734A93424AD0A7
:1045D000FB681B68714A934245D0FB681B68704AB0
:1045E000934240D0FB681B686E4A93423BD0FB6805
:1045F0001B686D4A934236D0FB681B686B4A934236
:1046000031D0FB681B686A4A93422CD0FB681B6858
:10461000684A934227D0FB681B68674A934222D0BE
:10462000FB681B68654A93421DD0FB681B68644A9F
:10463000934218D0FB681B68624A934213D0FB6810
:104640001B68614A93420ED0FB681B685F4A934225
:1046500009D0FB681B685E4A934204D0FB681B6864
:104660005C4A934201D1012300E00023002B0DD0CE
:10467000FB685B6EFA68926E5A60FB68DB6E002B1B
:1046800004D0FB681B6FFA68526F5A60FB681B68A6
:10469000394A93424AD0FB681B68384A934245D056
:1046A000FB681B68364A934240D0FB681B68354A5A
:1046B00093423BD0FB681B68334A934236D0FB6879
:1046C0001B68324A934231D0FB681B68304A9342E0
:1046D0002CD0FB681B682F4A934227D0FB681B68CD
:1046E0002D4A934222D0FB681B682C4A93421DD06E
:1046F000FB681B682A4A934218D0FB681B68294A4A
:10470000934213D0FB681B68274A93420ED0FB6884
:104710001B68264A934209D0FB681B68244A9342CF
:1047200004D0FB681B68234A934201D1012300E0B7
:104730000023002B59D0FB68DB6D03F01F033F22E1
:104740009A407B699A60FB681B681A68FB681B6863
:1047500022F480221A60FB681B683A685A60FB6882
:104760009B68402B38D1FB681B687A689A60FB68AD
:104770001B68BA68DA6086E0100002402800024038
:104780004000024058000240700002408800024091
:10479000A0000240B8000240100402402804024079
:1047A0004004024058040240700402408804024061
:1047B000A0040240B8040240085402581C54025895
:1047C0003054025844540258585402586C540258F9
:1047D0008054025894540258FB681B68BA689A6067
:1047E000FB681B687A68DA604DE0FB681B68294A41
:1047F000934222D0FB681B68274A93421DD0FB6876
:104800001B68264A934218D0FB681B68244A9342CF
:1048100013D0FB681B68234A93420ED0FB681B68C9
:10482000214A934209D0FB681B68204A934204D076
:10483000FB681B681E4A934201D1012300E000235C
:10484000002B20D0FB68DB6D03F01F0301229A4090
:104850003B695A60FB681B683A685A60FB689B6852
:10486000402B08D1FB681B687A689A60FB681B685C
:10487000BA68DA6007E0FB681B68BA689A60FB6890
:104880001B687A68DA6000BF1C37BD465DF8047BA0
:10489000704700BF085402581C5402583054025844
:1048A00044540258585402586C54025880540258C8
:1048B0009454025880B485B000AF78607B681B6860
:1048C000424A93424AD07B681B68414A934245D092
:1048D0007B681B683F4A934240D07B681B683E4A16
:1048E00093423BD07B681B683C4A934236D07B683E
:1048F0001B683B4A934231D07B681B68394A93421C
:104900002CD07B681B68384A934227D07B681B6891
:10491000364A934222D07B681B68354A93421DD0A9
:104920007B681B68334A934218D07B681B68324A05
:10493000934213D07B681B68304A93420ED07B6849
:104940001B682F4A934209D07B681B682D4A93420B
:1049500004D07B681B682C4A934201D1012300E0FC
:104960000023002B24D07B681B68DBB2103B274A56
:10497000A2FB03231B09FB60FB6803F00703244A27
:10498000D35C1A467B68DA65FB68032B08D97B6821
:104990001B681A461F4B13401A1D7B689A650DE071
:1049A0007B681B681A461B4B13407A68936505E0C9
:1049B0007B681B6823F0FF027B689A657B689B6DB0
:1049C00018461437BD465DF8047B7047100002405E
:1049D000280002404000024058000240700002409F
:1049E00088000240A0000240B800024010040240CB
:1049F000280402404004024058040240700402406F
:104A000088040240A0040240B8040240ABAAAAAA4B
:104A10002825010800FCFFFF80B485B000AF786056
:104A20000023FB737B689B69002B20D17B689B6A0A
:104A3000032B58D801A252F823F000BF4D4A0008BA
:104A40005F4A00084D4A0008E74A00087B68DB6AB5
:104A500003F08073002B48D00123FB7345E07B6893
:104A6000DB6AB3F1C07F42D10123FB733FE07B6877
:104A70009B69B3F5005F23D17B689B6A032B38D811
:104A800001A252F823F000BF994A00089F4A00088B
:104A9000994A0008B14A00080123FB7330E07B68A3
:104AA000DB6A03F08073002B25D00123FB7322E027
:104AB0007B68DB6AB3F1C07F1FD10123FB731CE06D
:104AC0007B689B6A022B02D9032B03D018E00123D9
:104AD000FB7315E07B68DB6A03F08073002B0ED05C
:104AE0000123FB730BE000BF0AE000BF08E000BF3A
:104AF00006E000BF04E000BF02E000BF00E000BF2E
:104B0000FB7B18461437BD465DF8047B704700BF39
:104B100080B485B000AF78607B681B68BB607B6841
:104B20001B68384A934222D07B681B68364A9342FE
:104B30001DD07B681B68354A934218D07B681B6880
:104B4000334A934213D07B681B68324A93420ED09B
:104B50007B681B68304A934209D07B681B682F4AE8
:104B6000934204D07B681B682D4A934201D10123F4
:104B700000E00023002B1AD07B681B68DBB2083BE7
:104B8000284AA2FB03231B09FB60FA68264B134447
:104B90009B001A467B681A667B68244A5A66FB6843
:104BA00003F01F0301229A407B689A6624E07B6829
:104BB0001B68DBB2103B1E4AA2FB03231B09FB60F0
:104BC000BB681C4A934206D8BB681B4A934202D971
:104BD000FB680833FB60FA68184B13449B001A46C5
:104BE0007B681A667B68164A5A66FB6803F01F03E7
:104BF00001229A407B689A6600BF1437BD465DF873
:104C0000047B7047085402581C5402583054025810
:104C100044540258585402586C5402588054025854
:104C200094540258CDCCCCCC009600168058025833
:104C3000ABAAAAAAB80402400F04024000820010E6
:104C40008008024080B485B000AF78607B685B6804
:104C5000DBB2FB60FB68002B4AD0FB68082B47D80F
:104C60007B681B68254A934222D07B681B68244AD4
:104C700093421DD07B681B68224A934218D07B6800
:104C80001B68214A934213D07B681B681F4A9342DA
:104C90000ED07B681B681E4A934209D07B681B6854
:104CA0001C4A934204D07B681B681B4A934201D183
:104CB000012300E00023002B0AD0FA68174B1344AD
:104CC0009B001A467B68DA667B68154A1A6709E01A
:104CD000FA68144B13449B001A467B68DA667B68BB
:104CE000114A1A67FB68013B01229A407B685A67A8
:104CF00000BF1437BD465DF8047B70470854025866
:104D00001C54025830540258445402585854025803
:104D10006C54025880540258945402583F9600161E
:104D2000405902583F8200104009024080B489B0C7
:104D300000AF786039600023FB61894B7B6194E1AF
:104D40003B681A680121FB6901FA03F313403B61D8
:104D50003B69002B00F086813B685B6803F003032E
:104D6000012B05D03B685B6803F00303022B30D1B5
:104D70007B689B68BB61FB695B00032202FA03F35B
:104D8000DB43BA691340BB613B68DA68FB695B00CF
:104D900002FA03F3BA691343BB617B68BA699A608C
:104DA0007B685B68BB610122FB6902FA03F3DB43AA
:104DB000BA691340BB613B685B681B0903F00102E1
:104DC000FB6902FA03F3BA691343BB617B68BA69F2
:104DD0005A603B685B6803F00303032B17D07B68C2
:104DE000DB68BB61FB695B00032202FA03F3DB4370
:104DF000BA691340BB613B689A68FB695B0002FAC1
:104E000003F3BA691343BB617B68BA69DA603B6834
:104E10005B6803F00303022B23D1FB69DA087B688C
:104E2000083253F82230BB61FB6903F007039B0093
:104E30000F2202FA03F3DB43BA691340BB613B68FC
:104E40001A69FB6903F007039B0002FA03F3BA69CE
:104E50001343BB61FB69DA087B680832B96943F820
:104E600022107B681B68BB61FB695B00032202FAAE
:104E700003F3DB43BA691340BB613B685B6803F033
:104E80000302FB695B0002FA03F3BA691343BB61D7
:104E90007B68BA691A603B685B6803F44033002B97
:104EA00000F0E0802F4BD3F8F4302E4A43F0020399
:104EB000C2F8F4302B4BD3F8F43003F00203FB605C
:104EC000FB68294AFB699B08023352F82330BB6117
:104ED000FB6903F003039B000F2202FA03F3DB4399
:104EE000BA691340BB617B68204A934252D07B6809
:104EF0001F4A934231D07B681E4A93422BD07B6875
:104F00001D4A934225D07B681C4A93421FD07B6880
:104F10001B4A934219D07B681A4A934213D07B688C
:104F2000194A93420DD07B68184A934207D07B6898
:104F3000174A934201D109232DE00A232BE00823CD
:104F400029E0072327E0062325E0052323E00423A7
:104F500021E003231FE002231DE001231BE000BF2B
:104F60008000005800440258000400580000025815
:104F70000004025800080258000C025800100258A1
:104F80000014025800180258001C02580020025851
:104F9000002402580023FA6902F0030292009340B1
:104FA000BA691343BB613849FB699B080233BA698C
:104FB00041F823204FF0B0431B68BB613B69DB43E2
:104FC000BA691340BB613B685B6803F48013002B34
:104FD00003D0BA693B691343BB614FF0B042BB6970
:104FE00013604FF0B0435B68BB613B69DB43BA6958
:104FF0001340BB613B685B6803F40013002B03D0D4
:10500000BA693B691343BB614FF0B042BB6953605F
:105010007B695B68BB613B69DB43BA691340BB6179
:105020003B685B6803F40033002B03D0BA693B692B
:105030001343BB617B69BA695A607B691B68BB61BA
:105040003B69DB43BA691340BB613B685B6803F4AF
:105050008033002B03D0BA693B691343BB617B6982
:10506000BA691A60FB690133FB613B681A68FB6926
:1050700022FA03F3002B7FF463AE00BF00BF243796
:10508000BD465DF8047B70470004005880B485B0CD
:1050900000AF78600B467B807B681A697B88134081
:1050A000002B02D00123FB7301E00023FB73FB7B89
:1050B00018461437BD465DF8047B704780B582B052
:1050C00000AF78607B68002B01D101238BE07B6807
:1050D00093F84130DBB2002B06D17B68002283F8C5
:1050E00040207868FBF782FC7B68242283F841200B
:1050F0007B681B681A687B681B6822F001021A60D3
:105100007B685A687B681B6822F070621A617B6852
:105110001B689A687B681B6822F400429A607B686F
:10512000DB68012B07D17B689A687B681B6842F4B7
:1051300000429A6006E07B689A687B681B6842F4CC
:1051400004429A607B68DB68022B08D17B681B688D
:105150005A687B681B6842F400625A6007E07B680B
:105160001B685A687B681B6822F400625A607B687F
:105170001B6859687B681A681D4B0B4353607B683A
:105180001B68DA687B681B6822F40042DA607B687F
:105190001A697B685B6942EA03017B689B691A02B2
:1051A0007B681B680A43DA607B68D9697B681A6A86
:1051B0007B681B680A431A607B681B681A687B68F7
:1051C0001B6842F001021A607B6800225A647B6807
:1051D000202283F841207B6800221A637B6800222A
:1051E00083F84220002318460837BD4680BD00BF23
:1051F0000080000280B588B002AFF8607A601A467D
:105200000B467B8113463B81FB6893F84130DBB250
:10521000202B40F0FD80FB6893F84030012B01D13A
:105220000223F6E0FB68012283F84020FCF7EAFD48
:1052300038613B690093192301224FF40041F8685B
:1052400000F014F90346002B01D00123E1E0FB68D4
:10525000212283F84120FB68102283F84220FB685A
:1052600000225A64FB687A685A62FB683A895A8558
:10527000FB6800225A63FB685B8D9BB2FF2B06D94B
:10528000FB68FF221A854FF080737B6107E0FB68A3
:105290005B8D9AB2FB681A854FF000737B61FB68E7
:1052A0001B8D002B24D0FB685B6A1A78FB681B6897
:1052B0009A62FB685B6A5A1CFB685A62FB685B8DEA
:1052C0009BB2013B9AB2FB685A85FB681B8D013B80
:1052D0009AB2FB681A85FB681B8DDBB20133DAB228
:1052E00079894E4B00937B69F86800F083FA66E099
:1052F000FB681B8DDAB27989484B00937B69F868AB
:1053000000F078FA5BE03A69396AF86800F007F96A
:105310000346002B01D001237BE0FB685B6A1A780F
:10532000FB681B689A62FB685B6A5A1CFB685A62DE
:10533000FB685B8D9BB2013B9AB2FB685A85FB68A8
:105340001B8D013B9AB2FB681A85FB685B8D9BB293
:10535000002B34D0FB681B8D002B30D13B690093B0
:105360003B6A00228021F86800F080F80346002B99
:1053700001D001234DE0FB685B8D9BB2FF2B0ED962
:10538000FB68FF221A85FB681B8DDAB2798900233E
:1053900000934FF08073F86800F02CFA0FE0FB6880
:1053A0005B8D9AB2FB681A85FB681B8DDAB279892E
:1053B000002300934FF00073F86800F01BFAFB68BD
:1053C0005B8D9BB2002B9ED13A69396AF86800F078
:1053D000EDF80346002B01D001231AE0FB681B689F
:1053E0002022DA61FB681B685968FB681A680C4B5D
:1053F0000B405360FB68202283F84120FB680022A9
:1054000083F84220FB68002283F84020002300E05C
:10541000022318461837BD4680BD00BF002000801B
:1054200000E800FE80B483B000AF78607B681B6842
:105430009B6903F00203022B03D17B681B680022E7
:105440009A627B681B689B6903F00103012B07D0FC
:105450007B681B689A697B681B6842F001029A614D
:1054600000BF0C37BD465DF8047B704780B584B043
:1054700000AFF860B9603B601346FB713BE0BA696E
:105480003968F86800F0D6F80346002B01D00123F4
:1054900041E03B68B3F1FF3F2DD0FCF7B3FC02467F
:1054A000BB69D31A3A689A4202D33B68002B22D1D7
:1054B000FB681B689A69BB681340BA689A420CBFC4
:1054C00001230023DBB21A46FB799A4213D1FB6811
:1054D0005B6C43F02002FB685A64FB68202283F86F
:1054E0004120FB68002283F84220FB68002283F8F9
:1054F000402001230FE0FB681B689A69BB681340DA
:10550000BA689A420CBF01230023DBB21A46FB792A
:105510009A42B4D0002318461037BD4680BD80B5EE
:1055200084B000AFF860B9607A6033E07A68B96837
:10553000F86800F07FF80346002B01D0012331E02A
:10554000BB68B3F1FF3F25D0FCF75CFC02467B68EB
:10555000D31ABA689A4202D3BB68002B1AD1FB68EF
:105560001B689B6903F00203022B13D0FB685B6C82
:1055700043F02002FB685A64FB68202283F8412034
:10558000FB68002283F84220FB68002283F8402059
:10559000012307E0FB681B689B6903F00203022BF1
:1055A000C4D1002318461037BD4680BD80B584B0F5
:1055B00000AFF860B9607A602FE07A68B968F8687F
:1055C00000F038F80346002B01D001232DE0FCF752
:1055D00019FC02467B68D31ABA689A4202D3BB68A8
:1055E000002B1AD1FB681B689B6903F02003202B5A
:1055F00013D0FB685B6C43F02002FB685A64FB68C5
:10560000202283F84120FB68002283F84220FB68B7
:10561000002283F84020012307E0FB681B689B6998
:1056200003F02003202BC8D1002318461037BD46B5
:1056300080BD000080B58AB000AFF860B9607A60C4
:10564000002387F82730FB681B689B69BB61002338
:105650003B627B68FB61BB6903F01003002B68D0E1
:10566000FB681B681022DA6149E0BB68B3F1FF3FB9
:1056700045D0FCF7C7FB0246FB69D31ABA689A42C9
:1056800002D3BB68002B3AD1FB681B685B6803F44C
:1056900080437B61FB6893F84230FB74FB681B68B6
:1056A0009B6903F40043B3F5004F21D17B69B3F547
:1056B000804F1DD0FB7C202B1AD0FB681B685A68DA
:1056C000FB681B6842F480425A60FCF79BFBF86160
:1056D0000EE0FCF797FB0246FB69D31A192B07D99A
:1056E0003B6A43F020033B62012387F8273006E042
:1056F000FB681B689B6903F02003202BE9D1FB6842
:105700001B689B6903F02003202B03D097F82730F8
:10571000002BAAD097F82730002B03D1FB681B6819
:105720002022DA613B6A43F004033B62012387F8DD
:105730002730FB681B689B69BB61BB6903F48073FE
:10574000002B0BD03B6A43F001033B62FB681B68F4
:105750004FF48072DA61012387F82730BB6903F4C4
:105760008063002B0BD03B6A43F008033B62FB686D
:105770001B684FF48062DA61012387F82730BB6928
:1057800003F40073002B0BD03B6A43F002033B622F
:10579000FB681B684FF40072DA61012387F8273039
:1057A00097F82730002B1CD0F868FFF73BFEFB680A
:1057B0001B685968FB681A680D4B0B405360FB6807
:1057C0005A6C3B6A1A43FB685A64FB68202283F8D0
:1057D0004120FB68002283F84220FB68002283F806
:1057E000402097F8273018462837BD4680BD00BFB7
:1057F00000E800FE80B487B000AFF8607B600B4625
:105800007B8113467B727B89C3F309027B7A1B047D
:1058100003F47F031A437B681A433B6A134323F064
:1058200000437B61FB681B685A683B6A5B0D03F4AD
:105830008061084B0B43DB4302EA0301FB681B68F2
:105840007A690A435A6000BF1C37BD465DF8047B85
:10585000704700BFFF63FF0380B483B000AF786080
:1058600039607B6893F84130DBB2202B38D17B68FC
:1058700093F84030012B01D1022332E07B680122F2
:1058800083F840207B68242283F841207B681B68D2
:105890001A687B681B6822F001021A607B681B682B
:1058A0001A687B681B6822F480521A607B681B6848
:1058B00019687B681B683A680A431A607B681B6832
:1058C0001A687B681B6842F001021A607B6820221C
:1058D00083F841207B68002283F84020002300E009
:1058E000022318460C37BD465DF8047B704780B430
:1058F00085B000AF786039607B6893F84130DBB2E7
:10590000202B39D17B6893F84030012B01D1022341
:1059100033E07B68012283F840207B68242283F8EF
:1059200041207B681B681A687B681B6822F00102B3
:105930001A607B681B681B68FB60FB6823F470635C
:10594000FB603B681B02FA681343FB607B681B68C3
:10595000FA681A607B681B681A687B681B6842F0EB
:1059600001021A607B68202283F841207B680022B4
:1059700083F84020002300E0022318461437BD4678
:105980005DF8047B7047000080B584B000AF78609C
:10599000194BDB6803F00403042B0AD0164BDB68B9
:1059A00003F007037A689A4201D001231FE0002325
:1059B0001DE0114BDB6823F007020F497B6813439E
:1059C000CB60FCF71FFAF86009E0FCF71BFA02460F
:1059D000FB68D31AB3F57A7F01D9012307E0064BA0
:1059E0005B6803F40053B3F5005FEED10023184663
:1059F0001037BD4680BD00BF0048025880B58CB04E
:105A000000AF78607B68002B02D1012300F048BC16
:105A10007B681B6803F00103002B00F08880994B22
:105A20001B6903F03803FB62964B9B6ABB62FB6AFF
:105A3000102B07D0FB6A182B11D1BB6A03F00303AC
:105A4000022B0CD18F4B1B6803F40033002B6DD05D
:105A50007B685B68002B69D1012300F021BC7B6867
:105A60005B68B3F5803F06D1864B1B68854A43F4DB
:105A7000803313602EE07B685B68002B0CD1814B78
:105A80001B68804A23F4803313607E4B1B687D4A79
:105A900023F4802313601DE07B685B68B3F5A02FBF
:105AA0000CD1784B1B68774A43F480231360754B05
:105AB0001B68744A43F4803313600BE0714B1B681E
:105AC000704A23F4803313606E4B1B686D4A23F4D5
:105AD000802313607B685B68002B13D0FCF792F97E
